:100000000C9462000C948A000C948A000C948A0070
:100010000C948A000C948A000C948A000C948A0038
:100020000C948A000C948A000C948A000C948A0028
:100030000C948A000C948A000C948A000C948A0018
:100040000C947A040C948A000C9448040C942204B6
:100050000C948A000C948A000C948A000C948A00F8
:100060000C948A000C948A000000000024002700F1
:100070002A0000000000250028002B0000000000DE
:1000800023002600290004040404040404040202DA
:100090000202020203030303030301020408102007
:1000A0004080010204081020010204081020000012
:1000B0000008000201000003040700000000000027
:1000C0000000C40411241FBECFEFD8E0DEBFCDBFB7
:1000D00013E0A0E0B1E0E8E5FEE002C005900D927B
:1000E000A431B107D9F723E0A4E1B3E001C01D9228
:1000F000A23DB207E1F710E0C2E6D0E004C02197CC
:10010000FE010E942407C136D107C9F70E940E05DF
:100110000C942A070C940000AF92BF92CF92DF920A
:10012000EF92FF920F931F93CF93DF936C017B01AC
:100130008B01040F151FEB015E01AE18BF08C0173D
:10014000D10759F06991D601ED91FC910190F081B0
:10015000E02DC6010995892B79F7C501DF91CF9173
:100160001F910F91FF90EF90DF90CF90BF90AF90D5
:100170000895FC01538D448D252F30E0842F90E0AD
:10018000821B930B541710F0CF9608950197089592
:10019000FC01918D828D981761F0A28DAE0FBF2F5B
:1001A000B11D5D968C91928D9F5F9F73928F90E0B1
:1001B00008958FEF9FEF0895FC01918D828D981720
:1001C00031F0828DE80FF11D858D90E008958FEF5D
:1001D0009FEF0895FC01918D228D892F90E0805C26
:1001E0009F4F821B91098F73992708958DE193E0AA
:1001F0000E94EA0021E0892B09F420E0822F089573
:1002000080E090E0892B29F00E94F60081110C9487
:1002100000000895FC01A48DA80FB92FB11DA35AA9
:10022000BF4F2C91848D90E001968F739927848F16
:10023000A689B7892C93A089B1898C918370806439
:100240008C93938D848D981306C00288F389E02DDA
:1002500080818F7D80830895EF92FF920F931F938B
:10026000CF93DF93EC0181E0888F9B8D8C8D981369
:100270001AC0E889F989808185FF15C09FB7F89475
:10028000EE89FF896083E889F989808183708064C1
:1002900080839FBF81E090E0DF91CF911F910F910C
:1002A000FF90EF900895F62E0B8D10E00F5F1F4F1B
:1002B0000F731127E02E8C8D8E110CC00FB607FC2A
:1002C000FACFE889F989808185FFF5CFCE010E94B8
:1002D0000A01F1CFEB8DEC0FFD2FF11DE35AFF4F1B
:1002E000F0829FB7F8940B8FEA89FB898081806246
:1002F000CFCFCF93DF93EC01888D8823B9F0AA8903
:10030000BB89E889F9898C9185FD03C0808186FDD0
:100310000DC00FB607FCF7CF8C9185FFF2CF80811F
:1003200085FFEDCFCE010E940A01E9CFDF91CF9189
:100330000895833081F028F4813099F08230A9F05B
:1003400008958730A9F08830C9F08430B1F48091E5
:1003500080008F7D03C0809180008F778093800024
:10036000089584B58F7784BD089584B58F7DFBCFC4
:100370008091B0008F778093B00008958091B00095
:100380008F7DF9CFCF93DF93282F30E0F901E2552D
:10039000FF4F8491F901E656FF4FD491F901EA57D6
:1003A000FF4FC491CC23A1F081110E949901EC2F41
:1003B000F0E0EE0FFF1FE458FF4FA591B491EC91D0
:1003C000ED2381E090E009F480E0DF91CF91089582
:1003D00080E090E0FACF1F93CF93DF93282F30E097
:1003E000F901E255FF4F8491F901E656FF4FD49190
:1003F000F901EA57FF4FC491CC23A9F0162F8111C0
:100400000E949901EC2FF0E0EE0FFF1FEE58FF4F16
:10041000A591B4918FB7F894EC91111108C0D095C3
:10042000DE23DC938FBFDF91CF911F910895DE2BE8
:10043000F8CFCF93DF9390E0FC01E656FF4F249175
:100440008A579F4FFC0184918823D1F090E0880F58
:10045000991FFC01E859FF4FA591B491FC01EE589A
:10046000FF4FC591D49161110EC09FB7F8948C9144
:10047000E22FE0958E238C932881E223E8839FBFAF
:10048000DF91CF9108958FB7F894EC91E22BEC9324
:100490008FBFF6CF3FB7F8948091190390911A035C
:1004A000A0911B03B0911C0326B5A89B05C02F3F4C
:1004B00019F00196A11DB11D3FBFBA2FA92F982F8A
:1004C0008827BC01CD01620F711D811D911D42E085
:1004D000660F771F881F991F4A95D1F708958F924D
:1004E0009F92AF92BF92CF92DF92EF92FF924B0119
:1004F0005C010E944A026B017C010E944A026C1955
:100500007D098E099F09683E734081059105A8F316
:1005100021E0821A9108A108B10888EEC80E83E094
:10052000D81EE11CF11C81149104A104B10429F727
:10053000FF90EF90DF90CF90BF90AF909F908F9003
:100540000895089590E080E00895FB010190002057
:10055000E9F73197AF01461B570BDC01ED91FC9198
:100560000280F381E02D0994BC018AEB93E00C94A6
:10057000A502CF93DF93BC018DE193E00E94A50219
:10058000EC016EE171E08DE193E00E94A5028C0F19
:100590009D1FDF91CF910895CF93DF93EC0160E031
:1005A0008E810E94EB0161E08E810E94EB0160E090
:1005B0008E810E94EB018BE891E00197F1F7DF91CA
:1005C000CF910895CF92DF92EF92FF920F931F93F6
:1005D000CF93DF936C017C0187E0E80EF11CD0E043
:1005E000C0E0062F10E0B8010C2E02C0759567958B
:1005F0000A94E2F76170F70181917F010E94EB019B
:100600002196C430D10579F7C601DF91CF911F91B2
:100610000F91FF90EF90DF90CF900C94CC02CF928F
:10062000DF92EF92FF920F931F93CF93DF93EC0132
:10063000F62E642F8C810E94EB018D818F3F19F083
:1006400060E00E94EB010F2D10E08F8584FF25C034
:100650006E0187E0C80ED11CF12CE12CB8010E2CE4
:1006600002C0759567950A94E2F76170F601819171
:100670006F010E94EB01FFEFEF1AFF0A88E0E81616
:10068000F10461F7CE01DF91CF911F910F91FF909F
:10069000EF90DF90CF900C94CC02B80184E0759578
:1006A00067958A95E1F7CE010E94E2026F2DCE0197
:1006B000DF91CF911F910F91FF90EF90DF90CF903E
:1006C0000C94E20240E0682F8AEB93E00C940F0355
:1006D000CF93DF93823029F49091C903986090936F
:1006E000C9038093CD031092CE0380E48093CF039F
:1006F00080E18093D00380E58093D10361E0809115
:10070000BE030E9419028091BF038F3F19F061E080
:100710000E94190261E08091C0030E941902CAEB95
:10072000D3E09E012A5B33408091C90384FD0BC056
:1007300084E090E021962817390744F461E08E8127
:100740000E941902EECF88E090E0F4CF8BE39DE0A9
:100750000197F1F760E08091BE030E94EB0160E039
:100760008091C0030E94EB018091BF038F3F19F07D
:1007700060E00E94EB018091C90384FD39C063E011
:100780008AEB93E00E94E202CBE4D6E4CE0101972B
:10079000F1F763E08AEB93E00E94E2022197F1F720
:1007A00063E08AEB93E00E94E20283E592E0019726
:1007B000F1F762E08AEB93E00E94E2028091C903C4
:1007C00080620E94620384E08093CA038CE00E94EE
:1007D000620381E00E9462038BE39FE10197F1F7DE
:1007E00082E08093CB0386E0DF91CF910C9462038B
:1007F00080620E9462038BE496E40197F1F7809196
:10080000C90380620E94620383E592E00197F1F7D9
:100810008091C90380620E946203D0CF9091CD0382
:10082000891710F08FEF890FE82FF0E0E654FC4FA6
:10083000848980680C94620341E00E940F0381E088
:1008400090E008951F920F920FB60F9211242F93EC
:100850003F934F935F936F937F938F939F93AF9348
:10086000BF93EF93FF938DE193E00E940A01FF9104
:10087000EF91BF91AF919F918F917F916F915F9118
:100880004F913F912F910F900FBE0F901F90189591
:100890001F920F920FB60F9211242F938F939F9355
:1008A000EF93FF93E0912D03F0912E038081E0916F
:1008B0003303F091340382FD1BC090818091360395
:1008C0008F5F8F7320913703821741F0E0913603D9
:1008D000F0E0E35EFC4F958F80933603FF91EF913C
:1008E0009F918F912F910F900FBE0F901F90189591
:1008F0008081F4CF1F920F920FB60F9211242F9385
:100900003F938F939F93AF93BF93809115039091E3
:100910001603A0911703B09118033091140323E03C
:10092000230F2D3758F50196A11DB11D20931403F7
:100930008093150390931603A0931703B0931803A5
:100940008091190390911A03A0911B03B0911C038D
:100950000196A11DB11D8093190390931A03A093D2
:100960001B03B0931C03BF91AF919F918F913F9157
:100970002F910F900FBE0F901F90189526E8230F10
:100980000296A11DB11DD2CFEDE1F3E013821282D8
:1009900088EE93E0A0E0B0E084839583A683B783DC
:1009A00084E091E09183808385EC90E09587848753
:1009B00084EC90E09787868780EC90E0918B808B29
:1009C00081EC90E0938B828B82EC90E0958B848B12
:1009D00086EC90E0978B868B118E128E138E148E80
:1009E000EAEBF3E01382128286E191E09183808347
:1009F00084E084838FEF858385E0868386E0878328
:100A000087E0808788E0818789E082871386148663
:100A100015861686178681E00C946803789484B551
:100A2000826084BD84B5816084BD85B5826085BDEA
:100A300085B5816085BD80916E00816080936E0078
:100A4000109281008091810082608093810080916A
:100A5000810081608093810080918000816080931B
:100A600080008091B10084608093B1008091B000DB
:100A700081608093B00080917A00846080937A00D6
:100A800080917A00826080937A0080917A00816000
:100A900080937A0080917A00806880937A00109227
:100AA000C100E0912D03F0912E0382E08083E0915C
:100AB0002903F0912A031082E0912B03F0912C037B
:100AC0008FEC808310923503E0913103F091320373
:100AD00086E08083E0912F03F09130038081806174
:100AE0008083E0912F03F0913003808188608083C0
:100AF000E0912F03F0913003808180688083E09142
:100B00002F03F091300380818F7D808360E08EE041
:100B10000E94190260E08FE00E94190260E081E10A
:100B20000E94190261E08DE00E94190261E08AE0F2
:100B30000E94190260E08DE00E94EB0160E08AE013
:100B40000E94EB0182E00E94680380E00E940E0494
:100B500081E291E00E94B40281E00E940E0482E3EF
:100B600091E00E94B40268E873E180E090E00E94A6
:100B70006F0280E00E940E0483E491E00E94B402C0
:100B800081E00E940E0484E591E00E94B40268E8CE
:100B900073E180E090E00E946F0280E00E940E040A
:100BA00085E691E00E94B40281E00E940E0486E78F
:100BB00091E00E94B40261E08AE00E94EB0160EDE6
:100BC00077E080E090E00E946F02C0E0D0E08EE02D
:100BD0000E94C201892B09F060C061E08DE00E9493
:100BE000EB0180E00E940E0487E891E00E94B402CD
:100BF00081E00E940E0488E991E00E94B40260ED59
:100C000077E080E090E00E946F0280E00E940E0496
:100C100089EA91E00E94B40281E00E940E048AEB0E
:100C200091E00E94B40260E08AE00E94EB0160ED76
:100C300077E080E090E00E946F0280E00E940E0466
:100C40008BEC91E00E94B40281E00E940E048CEDD6
:100C500091E00E94B40264EF71E080E090E00E94B5
:100C60006F028DEE91E00E94B90264EF71E080E0C6
:100C700090E00E946F0260E08DE00E94EB0180E056
:100C80000E940E0484E292E00E94B40281E00E947D
:100C90000E0485E392E00E94B40281E10E94C20149
:100CA000019709F060C061E08DE00E94EB0180E0F7
:100CB0000E940E0487E891E00E94B40281E00E9445
:100CC0000E0488E991E00E94B40260ED77E080E0D4
:100CD00090E00E946F0280E00E940E0486E492E0A1
:100CE0000E94B40281E00E940E0487E592E00E9417
:100CF000B40260E08AE00E94EB0160ED77E080E002
:100D000090E00E946F0280E00E940E048BEC91E064
:100D10000E94B40281E00E940E048CED91E00E94DA
:100D2000B40264EF71E080E090E00E946F0288E618
:100D300092E00E94B90264EF71E080E090E00E94CE
:100D40006F0260E08DE00E94EB0180E00E940E04E3
:100D500084E292E00E94B40281E00E940E0485E3E6
:100D600092E00E94B4028FE00E94C201019709F054
:100D700060C061E08DE00E94EB0180E00E940E0403
:100D800087E891E00E94B40281E00E940E0488E9A5
:100D900091E00E94B40260ED77E080E090E00E9474
:100DA0006F0280E00E940E048EE992E00E94B4027D
:100DB00081E00E940E048FEA92E00E94B40260E09B
:100DC0008AE00E94EB0160ED77E080E090E00E9415
:100DD0006F0280E00E940E048BEC91E00E94B4024E
:100DE00081E00E940E0480EC92E00E94B40264EF65
:100DF00071E080E090E00E946F0281ED92E00E943D
:100E0000B90264EF71E080E090E00E946F0260E060
:100E10008DE00E94EB0180E00E940E0481EF92E0E1
:100E20000E94B40281E00E940E0482E093E00E94DE
:100E3000B402209709F4CBCE0E94F600882309F46F
:100E4000C6CE0E940000C3CEEE0FFF1F0590F491A6
:080E5000E02D0994F894FFCF96
:100E5800000000002C018C00B9007901EA00C800EC
:100E6800DC00000000001C048C00A202A1020D0A94
:100E78000020414920424153454420534D4152549A
:100E8800200048454C4D455420464F5220524F4172
:100E980044200020424F4F54494E47204D4F44456F
:100EA8004D20200020504C4541534520574149547E
:100EB800202E202E0020454E47494E452052554EA3
:100EC8004E494E472000202020202020202020208E
:100ED80020202020202000414920444543495349EF
:100EE8004E4D414B494E470020414E414C595A49BD
:100EF8004E47202E202E202000414C455254204899
:100F0800454C4D4554204E4F540057454152454499
:100F180020454E47494E454F464600414920534DCE
:100F2800532053454E44494E47544F0020504F4C90
:100F38004943452053544154494F4E2000414C45A4
:100F4800525420534F4D454F4E45204953204E4F44
:100F580054205745415245442048454C4D4554205E
:100F6800414E442044524956494E47205645484927
:100F7800434C4500534D532053454E544F20504F3A
:100F88004C4943450053544154494F4E205355430F
:100F980043455353200020414C4552542120414C95
:100FA800434F484F4C2000434F4E53554D45442026
:100FB800454E474E454F4600414C45525420534FED
:100FC8004D454F4E4520495320434F4E53554D45AF
:100FD8004420414C434F484F4C20414E44204452FA
:100FE8004956494E472056454849434C45002041FB
:100FF8004C455254212056454849434C4520004110
:1010080043434944454E5420454E474E454F4600BC
:1010180020202020414D42554C414E434520202060
:1010280000414C4552542056454849434C452041BF
:1010380043434944454E542044455445435445444C
:1010480000202020534D532053454E5420544F2008
:101058002000414D42554C414E4345205355434392
:0410680045530000EC
:00000001FF
